:080000000C9433000C94000085
:100008000C9400000C9400000C9400000C94000068
:100018000C9400000C9400000C9400000C94000058
:100028000C9400000C9400000C9400000C94000048
:100038000C9400000C9400000C9400000C94000038
:100048000C9400000C9400000C9400001027E803A6
:1000580064000A0001000010000110000100F8947B
:10006800EE27ECBBF1E0FBBFEBBFE5BF8DE0A2E004
:10007800BB27ED938A95E9F780E094E0A0E6ED933D
:100088000197E9F7EFE5EDBFE4E0EEBFC0E6D1E0A8
:100098000C944E0020E030E0929A829B01C0FDCF84
:1000A800E3EEEABBE1E0E7BBE0E8E4BBE0E7E1BBA5
:1000B800929AD898D998A4E6B0E070D05DD061D073
:1000C800C398B39902C021E030E010E0022E032A61
:1000D80011F4183008F038C0103041F4C09AEBB36E
:1000E800EF71EBBBAF98E2B3EF7820C0113029F481
:1000F80043D0AF9AE2B3EF7819C0153078F4EBB378
:10010800EF71EBBB1BB2E12FED5FA1E03FD0E1291E
:10011800EBBBC098AF98E2B3EF7808C02DD031D0D0
:1001280012B2E12FEE5FA1E031D0E129E2BBA8ECE9
:10013800B0E034D0A2E3B0E031D0B39903C021E0FD
:1001480030E002C01F5FC2CFEBB3E06EEBBBC09ADA
:10015800AF9AE2B3E067E2BBA4E6B0E01FD0B39B7E
:1001680004C000240216030609F002C021E030E0B2
:10017800D99AD898FFCFFFCFEBB3EF71EBBBC098FC
:100188000895AF98E2B3EF78E2BB0895EE230E2E00
:10019800EA2F19F0EE0F0A94E9F70895109639F04E
:1001A800A89580ED97E00197F1F71197C9F70895A1
:00000001FF
